:040000000128FE2BAA
:100744001630210097000800F00020009B000800EC
:10075400683021009900220096010800D523AA23BD
:10076400A223BC23C423CC2BB0230330E42370087E
:10077400A623B72BC0302C009C007F309B00C030D8
:100784009A000800FF3020009B009A019110073066
:100794009C000800013021009D0090309E009F01C4
:1007A4009B019C01080022008C011F3021008C0059
:1007B400173023008C0024008C012100951722009F
:1007C4009D010800F300F200F20DF20D21001D0856
:1007D4007206833972069D001D14F02BF12B000064
:1007E40021009D149D18F42B1C08F100F0011B0836
:0C07F400F0070318F10A08002000B62BE3
:020000040001F9
:04000E00E4FFFFFF0D
:00000001FF
