:040000000128FE2BAA
:10071200163021009700080078302100990022004D
:1007220096010800C0238D2389239A23A223AA239A
:100732000800C0302C009C007C309B00C0309A0026
:100742000800F93020009B009A01911006309C00AD
:100752000800013021009D00E0309E009F019B01B6
:100762009C01080093230330E5237108F50070080B
:10077200F4007508F1007408F000CF23B42B2200B6
:100782008C011F3021008C00173023008C002400C4
:100792008C012100951722009D0108007108F300C9
:1007A2007008F200F336F20CF336F20C72082C00E9
:1007B2009B0070080339F2000530F235FF3E031D3D
:1007C200DE2B72359A000800F3007308F200F20D76
:1007D200F20D21001D087206833972069D001D1458
:1007E2000630890BF22B003221009D149D18F72B45
:0E07F2001C08F1001B08F00008002000B32BCB
:020000040001F9
:04000E00E4FFFFFF0D
:00000001FF
