:040000000128FE2BAA
:10074A0016302100970008005A3021009900220033
:10075A0096010800D823A923A523BE23B5230800A0
:10076A00013021009D00E0309E009F019B019C0109
:10077A000800503029009E0001309F009A0199011B
:10078A0098019C0102309B009E170800AF2303309A
:10079A00E8237108F5007008F400750829009C0028
:1007AA0074089B00CC2B22008C011F3021008C0086
:1007BA00173023008C0024008C012100951701308A
:1007CA0022009D000800F3007308F200F20DF20DFA
:1007DA0021001D087206833972069D001D1400004F
:1007EA0021009D149D18F72B1C08F1001B08F0002E
:0607FA0008002000CB2BDB
:020000040001F9
:04000E00E4FFFFFF0D
:00000001FF
